{
  "_format": "hh3-artifact-1",
  "contractName": "VerivoVotingNFT",
  "sourceName": "contracts/VerivoVotingNFT.sol",
  "abi": [
    {
      "inputs": [
        {
          "internalType": "address",
          "name": "minter",
          "type": "address"
        },
        {
          "internalType": "uint256",
          "name": "_maximumVoters",
          "type": "uint256"
        }
      ],
      "stateMutability": "nonpayable",
      "type": "constructor"
    },
    {
      "inputs": [],
      "name": "AccessControlBadConfirmation",
      "type": "error"
    },
    {
      "inputs": [
        {
          "internalType": "address",
          "name": "account",
          "type": "address"
        },
        {
          "internalType": "bytes32",
          "name": "neededRole",
          "type": "bytes32"
        }
      ],
      "name": "AccessControlUnauthorizedAccount",
      "type": "error"
    },
    {
      "inputs": [
        {
          "internalType": "address",
          "name": "sender",
          "type": "address"
        },
        {
          "internalType": "uint256",
          "name": "tokenId",
          "type": "uint256"
        },
        {
          "internalType": "address",
          "name": "owner",
          "type": "address"
        }
      ],
      "name": "ERC721IncorrectOwner",
      "type": "error"
    },
    {
      "inputs": [
        {
          "internalType": "address",
          "name": "operator",
          "type": "address"
        },
        {
          "internalType": "uint256",
          "name": "tokenId",
          "type": "uint256"
        }
      ],
      "name": "ERC721InsufficientApproval",
      "type": "error"
    },
    {
      "inputs": [
        {
          "internalType": "address",
          "name": "approver",
          "type": "address"
        }
      ],
      "name": "ERC721InvalidApprover",
      "type": "error"
    },
    {
      "inputs": [
        {
          "internalType": "address",
          "name": "operator",
          "type": "address"
        }
      ],
      "name": "ERC721InvalidOperator",
      "type": "error"
    },
    {
      "inputs": [
        {
          "internalType": "address",
          "name": "owner",
          "type": "address"
        }
      ],
      "name": "ERC721InvalidOwner",
      "type": "error"
    },
    {
      "inputs": [
        {
          "internalType": "address",
          "name": "receiver",
          "type": "address"
        }
      ],
      "name": "ERC721InvalidReceiver",
      "type": "error"
    },
    {
      "inputs": [
        {
          "internalType": "address",
          "name": "sender",
          "type": "address"
        }
      ],
      "name": "ERC721InvalidSender",
      "type": "error"
    },
    {
      "inputs": [
        {
          "internalType": "uint256",
          "name": "tokenId",
          "type": "uint256"
        }
      ],
      "name": "ERC721NonexistentToken",
      "type": "error"
    },
    {
      "anonymous": false,
      "inputs": [
        {
          "indexed": true,
          "internalType": "address",
          "name": "owner",
          "type": "address"
        },
        {
          "indexed": true,
          "internalType": "address",
          "name": "approved",
          "type": "address"
        },
        {
          "indexed": true,
          "internalType": "uint256",
          "name": "tokenId",
          "type": "uint256"
        }
      ],
      "name": "Approval",
      "type": "event"
    },
    {
      "anonymous": false,
      "inputs": [
        {
          "indexed": true,
          "internalType": "address",
          "name": "owner",
          "type": "address"
        },
        {
          "indexed": true,
          "internalType": "address",
          "name": "operator",
          "type": "address"
        },
        {
          "indexed": false,
          "internalType": "bool",
          "name": "approved",
          "type": "bool"
        }
      ],
      "name": "ApprovalForAll",
      "type": "event"
    },
    {
      "anonymous": false,
      "inputs": [
        {
          "indexed": true,
          "internalType": "bytes32",
          "name": "role",
          "type": "bytes32"
        },
        {
          "indexed": true,
          "internalType": "bytes32",
          "name": "previousAdminRole",
          "type": "bytes32"
        },
        {
          "indexed": true,
          "internalType": "bytes32",
          "name": "newAdminRole",
          "type": "bytes32"
        }
      ],
      "name": "RoleAdminChanged",
      "type": "event"
    },
    {
      "anonymous": false,
      "inputs": [
        {
          "indexed": true,
          "internalType": "bytes32",
          "name": "role",
          "type": "bytes32"
        },
        {
          "indexed": true,
          "internalType": "address",
          "name": "account",
          "type": "address"
        },
        {
          "indexed": true,
          "internalType": "address",
          "name": "sender",
          "type": "address"
        }
      ],
      "name": "RoleGranted",
      "type": "event"
    },
    {
      "anonymous": false,
      "inputs": [
        {
          "indexed": true,
          "internalType": "bytes32",
          "name": "role",
          "type": "bytes32"
        },
        {
          "indexed": true,
          "internalType": "address",
          "name": "account",
          "type": "address"
        },
        {
          "indexed": true,
          "internalType": "address",
          "name": "sender",
          "type": "address"
        }
      ],
      "name": "RoleRevoked",
      "type": "event"
    },
    {
      "anonymous": false,
      "inputs": [
        {
          "indexed": true,
          "internalType": "address",
          "name": "from",
          "type": "address"
        },
        {
          "indexed": true,
          "internalType": "address",
          "name": "to",
          "type": "address"
        },
        {
          "indexed": true,
          "internalType": "uint256",
          "name": "tokenId",
          "type": "uint256"
        }
      ],
      "name": "Transfer",
      "type": "event"
    },
    {
      "inputs": [],
      "name": "DEFAULT_ADMIN_ROLE",
      "outputs": [
        {
          "internalType": "bytes32",
          "name": "",
          "type": "bytes32"
        }
      ],
      "stateMutability": "view",
      "type": "function"
    },
    {
      "inputs": [],
      "name": "MAX_BATCH_SIZE",
      "outputs": [
        {
          "internalType": "uint256",
          "name": "",
          "type": "uint256"
        }
      ],
      "stateMutability": "view",
      "type": "function"
    },
    {
      "inputs": [],
      "name": "MINTER_ROLE",
      "outputs": [
        {
          "internalType": "bytes32",
          "name": "",
          "type": "bytes32"
        }
      ],
      "stateMutability": "view",
      "type": "function"
    },
    {
      "inputs": [
        {
          "internalType": "address",
          "name": "",
          "type": "address"
        },
        {
          "internalType": "uint256",
          "name": "",
          "type": "uint256"
        }
      ],
      "name": "approve",
      "outputs": [],
      "stateMutability": "pure",
      "type": "function"
    },
    {
      "inputs": [
        {
          "internalType": "address",
          "name": "owner",
          "type": "address"
        }
      ],
      "name": "balanceOf",
      "outputs": [
        {
          "internalType": "uint256",
          "name": "",
          "type": "uint256"
        }
      ],
      "stateMutability": "view",
      "type": "function"
    },
    {
      "inputs": [
        {
          "internalType": "uint256",
          "name": "tokenId",
          "type": "uint256"
        }
      ],
      "name": "burn",
      "outputs": [],
      "stateMutability": "nonpayable",
      "type": "function"
    },
    {
      "inputs": [
        {
          "internalType": "uint256",
          "name": "tokenId",
          "type": "uint256"
        }
      ],
      "name": "getApproved",
      "outputs": [
        {
          "internalType": "address",
          "name": "",
          "type": "address"
        }
      ],
      "stateMutability": "view",
      "type": "function"
    },
    {
      "inputs": [
        {
          "internalType": "bytes32",
          "name": "role",
          "type": "bytes32"
        }
      ],
      "name": "getRoleAdmin",
      "outputs": [
        {
          "internalType": "bytes32",
          "name": "",
          "type": "bytes32"
        }
      ],
      "stateMutability": "view",
      "type": "function"
    },
    {
      "inputs": [
        {
          "internalType": "address",
          "name": "account",
          "type": "address"
        }
      ],
      "name": "getVotingWeight",
      "outputs": [
        {
          "internalType": "uint256",
          "name": "",
          "type": "uint256"
        }
      ],
      "stateMutability": "view",
      "type": "function"
    },
    {
      "inputs": [
        {
          "internalType": "bytes32",
          "name": "role",
          "type": "bytes32"
        },
        {
          "internalType": "address",
          "name": "account",
          "type": "address"
        }
      ],
      "name": "grantRole",
      "outputs": [],
      "stateMutability": "nonpayable",
      "type": "function"
    },
    {
      "inputs": [
        {
          "internalType": "bytes32",
          "name": "role",
          "type": "bytes32"
        },
        {
          "internalType": "address",
          "name": "account",
          "type": "address"
        }
      ],
      "name": "hasRole",
      "outputs": [
        {
          "internalType": "bool",
          "name": "",
          "type": "bool"
        }
      ],
      "stateMutability": "view",
      "type": "function"
    },
    {
      "inputs": [
        {
          "internalType": "address",
          "name": "account",
          "type": "address"
        }
      ],
      "name": "hasVotingRight",
      "outputs": [
        {
          "internalType": "bool",
          "name": "",
          "type": "bool"
        }
      ],
      "stateMutability": "view",
      "type": "function"
    },
    {
      "inputs": [
        {
          "internalType": "address",
          "name": "owner",
          "type": "address"
        },
        {
          "internalType": "address",
          "name": "operator",
          "type": "address"
        }
      ],
      "name": "isApprovedForAll",
      "outputs": [
        {
          "internalType": "bool",
          "name": "",
          "type": "bool"
        }
      ],
      "stateMutability": "view",
      "type": "function"
    },
    {
      "inputs": [],
      "name": "maximumVoters",
      "outputs": [
        {
          "internalType": "uint256",
          "name": "",
          "type": "uint256"
        }
      ],
      "stateMutability": "view",
      "type": "function"
    },
    {
      "inputs": [],
      "name": "name",
      "outputs": [
        {
          "internalType": "string",
          "name": "",
          "type": "string"
        }
      ],
      "stateMutability": "view",
      "type": "function"
    },
    {
      "inputs": [
        {
          "internalType": "uint256",
          "name": "tokenId",
          "type": "uint256"
        }
      ],
      "name": "ownerOf",
      "outputs": [
        {
          "internalType": "address",
          "name": "",
          "type": "address"
        }
      ],
      "stateMutability": "view",
      "type": "function"
    },
    {
      "inputs": [
        {
          "internalType": "bytes32",
          "name": "role",
          "type": "bytes32"
        },
        {
          "internalType": "address",
          "name": "callerConfirmation",
          "type": "address"
        }
      ],
      "name": "renounceRole",
      "outputs": [],
      "stateMutability": "nonpayable",
      "type": "function"
    },
    {
      "inputs": [
        {
          "internalType": "bytes32",
          "name": "role",
          "type": "bytes32"
        },
        {
          "internalType": "address",
          "name": "account",
          "type": "address"
        }
      ],
      "name": "revokeRole",
      "outputs": [],
      "stateMutability": "nonpayable",
      "type": "function"
    },
    {
      "inputs": [
        {
          "components": [
            {
              "internalType": "address",
              "name": "recipient",
              "type": "address"
            },
            {
              "internalType": "uint256",
              "name": "weight",
              "type": "uint256"
            }
          ],
          "internalType": "struct VerivoVotingNFT.VoterConfig[]",
          "name": "voters",
          "type": "tuple[]"
        }
      ],
      "name": "safeMintBatch",
      "outputs": [],
      "stateMutability": "nonpayable",
      "type": "function"
    },
    {
      "inputs": [
        {
          "internalType": "address",
          "name": "from",
          "type": "address"
        },
        {
          "internalType": "address",
          "name": "to",
          "type": "address"
        },
        {
          "internalType": "uint256",
          "name": "tokenId",
          "type": "uint256"
        }
      ],
      "name": "safeTransferFrom",
      "outputs": [],
      "stateMutability": "nonpayable",
      "type": "function"
    },
    {
      "inputs": [
        {
          "internalType": "address",
          "name": "from",
          "type": "address"
        },
        {
          "internalType": "address",
          "name": "to",
          "type": "address"
        },
        {
          "internalType": "uint256",
          "name": "tokenId",
          "type": "uint256"
        },
        {
          "internalType": "bytes",
          "name": "data",
          "type": "bytes"
        }
      ],
      "name": "safeTransferFrom",
      "outputs": [],
      "stateMutability": "nonpayable",
      "type": "function"
    },
    {
      "inputs": [
        {
          "internalType": "address",
          "name": "",
          "type": "address"
        },
        {
          "internalType": "bool",
          "name": "",
          "type": "bool"
        }
      ],
      "name": "setApprovalForAll",
      "outputs": [],
      "stateMutability": "pure",
      "type": "function"
    },
    {
      "inputs": [
        {
          "internalType": "bytes4",
          "name": "interfaceId",
          "type": "bytes4"
        }
      ],
      "name": "supportsInterface",
      "outputs": [
        {
          "internalType": "bool",
          "name": "",
          "type": "bool"
        }
      ],
      "stateMutability": "view",
      "type": "function"
    },
    {
      "inputs": [],
      "name": "symbol",
      "outputs": [
        {
          "internalType": "string",
          "name": "",
          "type": "string"
        }
      ],
      "stateMutability": "view",
      "type": "function"
    },
    {
      "inputs": [
        {
          "internalType": "uint256",
          "name": "tokenId",
          "type": "uint256"
        }
      ],
      "name": "tokenURI",
      "outputs": [
        {
          "internalType": "string",
          "name": "",
          "type": "string"
        }
      ],
      "stateMutability": "view",
      "type": "function"
    },
    {
      "inputs": [
        {
          "internalType": "address",
          "name": "from",
          "type": "address"
        },
        {
          "internalType": "address",
          "name": "to",
          "type": "address"
        },
        {
          "internalType": "uint256",
          "name": "tokenId",
          "type": "uint256"
        }
      ],
      "name": "transferFrom",
      "outputs": [],
      "stateMutability": "nonpayable",
      "type": "function"
    }
  ],
  "bytecode": "0x60806040523461034e57611a226040813803918261001c81610352565b93849283398101031261034e578051906001600160a01b038216820361034e576020015161004a6040610352565b91600f83526e15995c9a5d9bd59bdd1a5b99d39195608a1b60208401526100716040610352565b600581526456564f544560d81b602082015283516001600160401b038111610262575f54600181811c91168015610344575b602082101461024457601f81116102e2575b50602094601f8211600114610281579481929394955f92610276575b50508160011b915f199060031b1c1916175f555b8051906001600160401b03821161026257600154600181811c91168015610258575b602082101461024457601f81116101e1575b50602090601f83116001146101785761015a9392915f918361016d575b50508160011b915f199060031b1c1916176001555b61015433610377565b506103ed565b5060085560405161154190816104818239f35b015190505f80610136565b90601f1983169160015f52815f20925f5b8181106101c9575091600193918561015a979694106101b1575b505050811b0160015561014b565b01515f1960f88460031b161c191690555f80806101a3565b92936020600181928786015181550195019301610189565b60015f527fb10e2d527612073b26eecdfd717e6a320cf44b4afac2b0732d9fcbe2b7fa0cf6601f840160051c8101916020851061023a575b601f0160051c01905b81811061022f5750610119565b5f8155600101610222565b9091508190610219565b634e487b7160e01b5f52602260045260245ffd5b90607f1690610107565b634e487b7160e01b5f52604160045260245ffd5b015190505f806100d1565b601f198216955f8052805f20915f5b8881106102ca575083600195969798106102b2575b505050811b015f556100e5565b01515f1960f88460031b161c191690555f80806102a5565b91926020600181928685015181550194019201610290565b5f80527f290decd9548b62a8d60345a988386fc84ba6bc95484008f6362f93160ef3e563601f830160051c8101916020841061033a575b601f0160051c01905b81811061032f57506100b5565b5f8155600101610322565b9091508190610319565b90607f16906100a3565b5f80fd5b6040519190601f01601f191682016001600160401b0381118382101761026257604052565b6001600160a01b0381165f9081525f516020611a025f395f51905f52602052604090205460ff166103e8576001600160a01b03165f8181525f516020611a025f395f51905f5260205260408120805460ff191660011790553391905f5160206119c25f395f51905f528180a4600190565b505f90565b6001600160a01b0381165f9081525f5160206119e25f395f51905f52602052604090205460ff166103e8576001600160a01b03165f8181525f5160206119e25f395f51905f5260205260408120805460ff191660011790553391907f9f2df0fed2c77648de5860a4cc508cd0818c85b8b8a1ab4ceeef8d981c8956a6905f5160206119c25f395f51905f529080a460019056fe6080806040526004361015610012575f80fd5b5f905f3560e01c90816301ffc9a714610e335750806302566aa114610e1657806306fdde0314610d5e578063081812fc14610d22578063095ea7b314610cb95780630fb2b8e31461080b57806323b872dd146107f4578063248a9ca3146107c95780632f2ff15d1461078b57806336568abe1461074757806342842e0e1461071857806342966c68146105ae5780636352211e1461057e578063648fa7201461055657806370a082311461053357806391d14854146104ea57806395d89b41146103e2578063a217fddf146103c8578063a22cb46514610354578063b88d4fde146102be578063c87b56dd14610261578063cfdbf25414610245578063d53913931461020a578063d547741f146101c2578063d5da24b9146101965763e985e9c51461013c575f80fd5b34610193576040366003190112610193576040610157610edc565b91610160610ef2565b9260018060a01b031681526005602052209060018060a01b03165f52602052602060ff60405f2054166040519015158152f35b80fd5b50346101935760203660031901126101935760206101ba6101b5610edc565b61119d565b604051908152f35b5034610193576040366003190112610193576102066004356101e2610ef2565b906102016101fc825f526006602052600160405f20015490565b61128f565b611363565b5080f35b503461019357806003193601126101935760206040517f9f2df0fed2c77648de5860a4cc508cd0818c85b8b8a1ab4ceeef8d981c8956a68152f35b5034610193578060031936011261019357602060405160c88152f35b346102ba5760203660031901126102ba5761027d6004356111fe565b505f60405161028d602082610f42565b526102b660405161029f602082610f42565b5f8152604051918291602083526020830190610eb8565b0390f35b5f80fd5b346102ba5760803660031901126102ba576102d7610edc565b6102df610ef2565b906044356064359267ffffffffffffffff84116102ba57366023850112156102ba5783600401359261031084610f78565b9361031e6040519586610f42565b80855236602482880101116102ba576020815f9260246103529901838901378601015261034c838383610fb8565b336113e7565b005b346102ba5760403660031901126102ba5761036d610edc565b50602435801515036102ba5760405162461bcd60e51b815260206004820152602160248201527f4e465420736f756c2d626f756e64203a20617070726f766520696e74657264696044820152601d60fa1b6064820152608490fd5b346102ba575f3660031901126102ba5760206040515f8152f35b346102ba575f3660031901126102ba576040515f6001548060011c906001811680156104e0575b6020831081146104cc578285529081156104a8575060011461044a575b6102b68361043681850382610f42565b604051918291602083526020830190610eb8565b91905060015f527fb10e2d527612073b26eecdfd717e6a320cf44b4afac2b0732d9fcbe2b7fa0cf6915f905b80821061048e57509091508101602001610436610426565b919260018160209254838588010152019101909291610476565b60ff191660208086019190915291151560051b840190910191506104369050610426565b634e487b7160e01b5f52602260045260245ffd5b91607f1691610409565b346102ba5760403660031901126102ba57610503610ef2565b6004355f52600660205260405f209060018060a01b03165f52602052602060ff60405f2054166040519015158152f35b346102ba5760203660031901126102ba5760206101ba610551610edc565b61116c565b346102ba5760203660031901126102ba576020610574610551610edc565b1515604051908152f35b346102ba5760203660031901126102ba57602061059c6004356111fe565b6040516001600160a01b039091168152f35b346102ba5760203660031901126102ba576004356105ca611220565b5f818152600260205260409020546001600160a01b0316151580610711575b6106c0575f818152600260205260409020546001600160a01b0316801590811561068c575b5f83815260026020526040812080546001600160a01b03191690558390827fddf252ad1be2c89b69c2b068fc378daa952ba7f163c4a11628f55a4df523b3ef8280a45061067a576009548015610666575f1901600955005b634e487b7160e01b5f52601160045260245ffd5b637e27328960e01b5f5260045260245ffd5b825f52600460205260405f206001600160601b0360a01b8154169055805f52600360205260405f205f19815401905561060e565b60405162461bcd60e51b815260206004820152602360248201527f4e465420736f756c2d626f756e64203a207472616e736665727420696e746572604482015262191a5d60ea1b6064820152608490fd5b505f6105e9565b346102ba5761035261072936610f08565b9060405192610739602085610f42565b5f845261034c838383610fb8565b346102ba5760403660031901126102ba57610760610ef2565b336001600160a01b0382160361077c5761035290600435611363565b63334bd91960e11b5f5260045ffd5b346102ba5760403660031901126102ba576103526004356107aa610ef2565b906107c46101fc825f526006602052600160405f20015490565b6112d7565b346102ba5760203660031901126102ba5760206101ba6004355f526006602052600160405f20015490565b346102ba5761035261080536610f08565b91610fb8565b346102ba5760203660031901126102ba5760043567ffffffffffffffff81116102ba57366023820112156102ba5780600401359067ffffffffffffffff82116102ba576024810190602436918460061b0101116102ba5761086a611220565b60c88211610c81576009548281018091116106665760085410610c32575f916020915b81841061089657005b6108a1848383610f94565b356001600160a01b03811694908581036102ba57846108c1838686610f94565b0135906108cd8161116c565b610be15760018210610b9c57600754604051916108ea8884610f42565b5f83528815610b89575f8281526002895260409020546001600160a01b0316151580610b81575b610b30575f8281526002895260409020546001600160a01b03168015159081610b00575b8a5f5260038a5260405f2060018154019055835f5260028a5260405f208b6001600160601b0360a01b825416179055838b827fddf252ad1be2c89b69c2b068fc378daa952ba7f163c4a11628f55a4df523b3ef5f80a450610aed573b6109d2575b5050600192939495506007545f52600a865260405f20556109b86009546112c9565b6009556109c66007546112c9565b6007550192919061088d565b610a0c9187916040519384928392630a85bd0160e11b84523360048501525f60248501526044840152608060648401526084830190610eb8565b03815f8b5af15f9181610aad575b50610a6f5786863d15610a67573d90610a3282610f78565b91610a406040519384610f42565b82523d5f8284013e5b81519182610a645783633250574960e11b5f5260045260245ffd5b01fd5b606090610a49565b630a85bd0160e1979293949596971b9063ffffffff60e01b1603610a9b57508493929190600187610996565b633250574960e11b5f5260045260245ffd5b9091508681813d8311610ae6575b610ac58183610f42565b810103126102ba57516001600160e01b0319811681036102ba579088610a1a565b503d610abb565b6339e3563760e11b5f525f60045260245ffd5b5f84815260048b52604080822080546001600160a01b031916905582825260038c52902080545f19019055610935565b60405162461bcd60e51b815260048101899052602360248201527f4e465420736f756c2d626f756e64203a207472616e736665727420696e746572604482015262191a5d60ea1b6064820152608490fd5b506001610911565b633250574960e11b5f525f60045260245ffd5b60405162461bcd60e51b815260048101879052601f60248201527f4c6520706f69647320646f69742065747265206175206d696e696d756d2031006044820152606490fd5b60405162461bcd60e51b815260048101879052602360248201527f4164726573736520706f73736564652064656a6120756e204e465420646520766044820152626f746560e81b6064820152608490fd5b60405162461bcd60e51b815260206004820152602160248201527f4e6f6d627265206d6178696d756d20646520766f74616e74732061747465696e6044820152601d60fa1b6064820152608490fd5b60405162461bcd60e51b815260206004820152601060248201526f10985d18da081d1c9bdc0819dc985b9960821b6044820152606490fd5b346102ba5760403660031901126102ba57610cd2610edc565b5060405162461bcd60e51b815260206004820152602160248201527f4e465420736f756c2d626f756e64203a20617070726f766520696e74657264696044820152601d60fa1b6064820152608490fd5b346102ba5760203660031901126102ba57600435610d3f816111fe565b505f526004602052602060018060a01b0360405f205416604051908152f35b346102ba575f3660031901126102ba576040515f5f548060011c90600181168015610e0c575b6020831081146104cc578285529081156104a85750600114610db0576102b68361043681850382610f42565b5f8080527f290decd9548b62a8d60345a988386fc84ba6bc95484008f6362f93160ef3e563939250905b808210610df257509091508101602001610436610426565b919260018160209254838588010152019101909291610dda565b91607f1691610d84565b346102ba575f3660031901126102ba576020600854604051908152f35b346102ba5760203660031901126102ba576004359063ffffffff60e01b82168092036102ba57602091637965db0b60e01b8114908115610e75575b5015158152f35b6380ac58cd60e01b811491508115610ea7575b8115610e96575b5083610e6e565b6301ffc9a760e01b14905083610e8f565b635b5e139f60e01b81149150610e88565b805180835260209291819084018484015e5f828201840152601f01601f1916010190565b600435906001600160a01b03821682036102ba57565b602435906001600160a01b03821682036102ba57565b60609060031901126102ba576004356001600160a01b03811681036102ba57906024356001600160a01b03811681036102ba579060443590565b90601f8019910116810190811067ffffffffffffffff821117610f6457604052565b634e487b7160e01b5f52604160045260245ffd5b67ffffffffffffffff8111610f6457601f01601f191660200190565b9190811015610fa45760061b0190565b634e487b7160e01b5f52603260045260245ffd5b6001600160a01b0390911691908215610b89575f828152600260205260409020546001600160a01b0316151580611164575b6106c0575f828152600260205260409020546001600160a01b0316928290331515806110cf575b508461109b575b805f52600360205260405f2060018154019055815f52600260205260405f20816001600160601b0360a01b825416179055847fddf252ad1be2c89b69c2b068fc378daa952ba7f163c4a11628f55a4df523b3ef5f80a46001600160a01b031680830361108357505050565b6364283d7b60e01b5f5260045260245260445260645ffd5b815f52600460205260405f206001600160601b0360a01b8154169055845f52600360205260405f205f198154019055611018565b90915080611113575b156110e55782905f611011565b82846110fd57637e27328960e01b5f5260045260245ffd5b63177e802f60e01b5f523360045260245260445ffd5b503384148015611142575b806110d857505f838152600460205260409020546001600160a01b031633146110d8565b505f84815260056020908152604080832033845290915290205460ff1661111e565b506001610fea565b6001600160a01b0316801561118a575f52600360205260405f205490565b6322718ad960e21b5f525f60045260245ffd5b6111a68161116c565b156111f957600754905f5b8281106111bf575050505f90565b5f818152600260205260409020546001600160a01b038381169116146111e7576001016111b1565b9150505f52600a60205260405f205490565b505f90565b5f818152600260205260409020546001600160a01b031690811561067a575090565b335f9081527f3195c024b2ddd6d9b8f6c836aa52f67fe69376c8903d009b80229b3ce4425f51602052604090205460ff161561125857565b63e2517d3f60e01b5f52336004527f9f2df0fed2c77648de5860a4cc508cd0818c85b8b8a1ab4ceeef8d981c8956a660245260445ffd5b5f81815260066020908152604080832033845290915290205460ff16156112b35750565b63e2517d3f60e01b5f523360045260245260445ffd5b5f1981146106665760010190565b5f8181526006602090815260408083206001600160a01b038616845290915290205460ff1661135d575f8181526006602090815260408083206001600160a01b0395909516808452949091528120805460ff19166001179055339291907f2f8788117e7eff1d82e926ec794901d17c78024a50270940304540a733656f0d9080a4600190565b50505f90565b5f8181526006602090815260408083206001600160a01b038616845290915290205460ff161561135d575f8181526006602090815260408083206001600160a01b0395909516808452949091528120805460ff19169055339291907ff6391f5c32d9c69d2a47ea670b442974b53935d1edc7fd64eb21e047a839171b9080a4600190565b823b6113f5575b5050505050565b604051630a85bd0160e11b81526001600160a01b039182166004820152918116602483015260448201939093526080606482015291169160209082908190611441906084830190610eb8565b03815f865af15f91816114c6575b506114a457503d1561149d573d61146581610f78565b906114736040519283610f42565b81523d5f602083013e5b805190816114985782633250574960e11b5f5260045260245ffd5b602001fd5b606061147d565b6001600160e01b03191663757a42ff60e11b01610a9b57505f808080806113ee565b9091506020813d602011611503575b816114e260209383610f42565b810103126102ba57516001600160e01b0319811681036102ba57905f61144f565b3d91506114d556fea2646970667358221220031b400ae423d7bf6989e3157ec5beaf7dd62b7df306986d598aba4e685a9f0164736f6c634300081c00332f8788117e7eff1d82e926ec794901d17c78024a50270940304540a733656f0d3195c024b2ddd6d9b8f6c836aa52f67fe69376c8903d009b80229b3ce4425f5154cdd369e4e8a8515e52ca72ec816c2101831ad1f18bf44102ed171459c9b4f8",
  "linkReferences": {},
  "deployedLinkReferences": {},
  "immutableReferences": {},
  "inputSourceName": "project/contracts/VerivoVotingNFT.sol",
  "buildInfoId": "solc-0_8_28-90af164e482952fbdf5fafd2aeba2637421ba0d3"
}