{
  "_format": "hh3-artifact-1",
  "contractName": "VerivoVotingFactory",
  "sourceName": "contracts/VerivoVotingFactory.sol",
  "abi": [
    {
      "inputs": [],
      "stateMutability": "nonpayable",
      "type": "constructor"
    },
    {
      "inputs": [
        {
          "internalType": "address",
          "name": "owner",
          "type": "address"
        }
      ],
      "name": "OwnableInvalidOwner",
      "type": "error"
    },
    {
      "inputs": [
        {
          "internalType": "address",
          "name": "account",
          "type": "address"
        }
      ],
      "name": "OwnableUnauthorizedAccount",
      "type": "error"
    },
    {
      "anonymous": false,
      "inputs": [
        {
          "indexed": true,
          "internalType": "address",
          "name": "previousOwner",
          "type": "address"
        },
        {
          "indexed": true,
          "internalType": "address",
          "name": "newOwner",
          "type": "address"
        }
      ],
      "name": "OwnershipTransferred",
      "type": "event"
    },
    {
      "anonymous": false,
      "inputs": [
        {
          "indexed": true,
          "internalType": "address",
          "name": "votingAddress",
          "type": "address"
        },
        {
          "indexed": false,
          "internalType": "string",
          "name": "title",
          "type": "string"
        }
      ],
      "name": "VotingCreated",
      "type": "event"
    },
    {
      "inputs": [
        {
          "internalType": "address",
          "name": "_votingNFT",
          "type": "address"
        },
        {
          "internalType": "address",
          "name": "_organisationAdministrator",
          "type": "address"
        },
        {
          "internalType": "string",
          "name": "_title",
          "type": "string"
        },
        {
          "internalType": "string[]",
          "name": "_choices",
          "type": "string[]"
        },
        {
          "internalType": "uint256",
          "name": "_votingDuration",
          "type": "uint256"
        }
      ],
      "name": "createVoting",
      "outputs": [],
      "stateMutability": "nonpayable",
      "type": "function"
    },
    {
      "inputs": [],
      "name": "getVotings",
      "outputs": [
        {
          "internalType": "address[]",
          "name": "",
          "type": "address[]"
        }
      ],
      "stateMutability": "view",
      "type": "function"
    },
    {
      "inputs": [],
      "name": "owner",
      "outputs": [
        {
          "internalType": "address",
          "name": "",
          "type": "address"
        }
      ],
      "stateMutability": "view",
      "type": "function"
    },
    {
      "inputs": [],
      "name": "renounceOwnership",
      "outputs": [],
      "stateMutability": "nonpayable",
      "type": "function"
    },
    {
      "inputs": [
        {
          "internalType": "address",
          "name": "newOwner",
          "type": "address"
        }
      ],
      "name": "transferOwnership",
      "outputs": [],
      "stateMutability": "nonpayable",
      "type": "function"
    }
  ],
  "bytecode": "0x608080604052346071573315605e575f8054336001600160a01b0319821681178355916001600160a01b03909116907f8be0079c531659141344cd1fd0a4f28419497f9722a3daafe3b4186f6b6457e09080a3611a3890816100768239f35b631e4fbdf760e01b5f525f60045260245ffd5b5f80fdfe6080806040526004361015610012575f80fd5b5f3560e01c90816305c1112d146103d35750806335d34ed21461015a578063715018a6146101035780638da5cb5b146100dc5763f2fde38b14610053575f80fd5b346100d85760203660031901126100d85761006c610498565b61007461054a565b6001600160a01b031680156100c5575f80546001600160a01b03198116831782556001600160a01b0316907f8be0079c531659141344cd1fd0a4f28419497f9722a3daafe3b4186f6b6457e09080a3005b631e4fbdf760e01b5f525f60045260245ffd5b5f80fd5b346100d8575f3660031901126100d8575f546040516001600160a01b039091168152602090f35b346100d8575f3660031901126100d85761011b61054a565b5f80546001600160a01b0319811682556001600160a01b03167f8be0079c531659141344cd1fd0a4f28419497f9722a3daafe3b4186f6b6457e08280a3005b346100d85760a03660031901126100d857610173610498565b6024356001600160a01b038116908190036100d85760443567ffffffffffffffff81116100d8576101a89036906004016104d0565b9060643567ffffffffffffffff81116100d857366023820112156100d85780600401359367ffffffffffffffff8511610359578460051b91604051956101f160208501886104ae565b8652602086019060248294820101903682116100d85760248101925b8284106103a3575050505061022061054a565b60405192611492918285019285841067ffffffffffffffff8511176103595761057186396001600160a01b03168252602082015260a06040820181905261026990820185610526565b94818603606083015251808652602086019060208160051b88010193915f905b82821061037857608435608086015287878703885ff0801561036d5760018060a01b031690600154680100000000000000008110156103595760018101806001558110156103455760015f527fb10e2d527612073b26eecdfd717e6a320cf44b4afac2b0732d9fcbe2b7fa0cf60180546001600160a01b0319168317905560405160208082527f4603bf5201e04565fcdd92bb71fcbabcfd5e75f0bf2f1b8a732f660e56acb3299282916103409190830190610526565b0390a2005b634e487b7160e01b5f52603260045260245ffd5b634e487b7160e01b5f52604160045260245ffd5b6040513d5f823e3d90fd5b90919294602080610395600193601f198d82030186528951610526565b970192019201909291610289565b833567ffffffffffffffff81116100d8576020916103c88392602436918701016104d0565b81520193019261020d565b346100d8575f3660031901126100d8576001549081815260208101809260015f527fb10e2d527612073b26eecdfd717e6a320cf44b4afac2b0732d9fcbe2b7fa0cf6905f5b818110610479575050508161042e9103826104ae565b604051918291602083019060208452518091526040830191905f5b818110610457575050500390f35b82516001600160a01b0316845285945060209384019390920191600101610449565b82546001600160a01b0316845260209093019260019283019201610418565b600435906001600160a01b03821682036100d857565b90601f8019910116810190811067ffffffffffffffff82111761035957604052565b81601f820112156100d85780359067ffffffffffffffff82116103595760405192610505601f8401601f1916602001856104ae565b828452602083830101116100d857815f926020809301838601378301015290565b805180835260209291819084018484015e5f828201840152601f01601f1916010190565b5f546001600160a01b0316330361055d57565b63118cdaa760e01b5f523360045260245ffdfe60806040523461054a57611492803803806100198161054e565b92833981019060a08183031261054a5761003281610573565b9061003f60208201610573565b60408201519093906001600160401b03811161054a5781610061918401610587565b60608301519094906001600160401b03811161054a5783019282601f8501121561054a578351926001600160401b038411610332578360051b9460206100a881880161054e565b9586528501958101602001908683831161054a5760208201905b83821061051d5750505050506080015193331561050a575f8054336001600160a01b03198216811783556040519290916001600160a01b0316907f8be0079c531659141344cd1fd0a4f28419497f9722a3daafe3b4186f6b6457e09080a360018451106104c85750841561047957600180546001600160a01b039283166001600160a01b0319918216179091556002805493909216921691909117905583516001600160401b0381116103325761017a6003546105d8565b601f811161042b575b50602094601f82116001146103c8576101b69293949582915f92610283575b50508160011b915f199060031b1c19161790565b6003555b51906801000000000000000082116103325760045482600455808310610346575b5060045f9081525f5160206114725f395f51905f5292915b828210610217578460065560ff1960055416600555604051610e4b90816106278239f35b80518051906001600160401b0382116103325761023486546105d8565b601f81116102f7575b50602090601f831160011461028e5792610274836001959460209487965f926102835750508160011b915f199060031b1c19161790565b87555b019401910190926101f3565b015190505f806101a2565b90601f19831691875f52815f20925f5b8181106102df57509360209360019693879693838895106102c7575b505050811b018755610277565b01515f1960f88460031b161c191690555f80806102ba565b9293602060018192878601518155019501930161029e565b61032290875f5260205f20601f850160051c81019160208610610328575b601f0160051c0190610610565b5f61023d565b9091508190610315565b634e487b7160e01b5f52604160045260245ffd5b60045f525f5160206114725f395f51905f529081019083015b81811061036c57506101db565b80610379600192546105d8565b80610386575b500161035f565b601f8111831461039b57505f81555b5f61037f565b6103b790825f5283601f60205f20920160051c82019101610610565b805f525f6020812081835555610395565b601f1982169560035f52805f20915f5b888110610413575083600195969798106103fb575b505050811b016003556101ba565b01515f1960f88460031b161c191690555f80806103ed565b919260206001819286850151815501940192016103d8565b60035f52610473907fc2575a0e9e593c00f959f8c92f12db2869c3395a3b0502d05e2516446f71f85b601f840160051c8101916020851061032857601f0160051c0190610610565b5f610183565b60405162461bcd60e51b815260206004820152602160248201527f4c6120647572656520646f6974206574726520737570657269657572652061206044820152600360fc1b6064820152608490fd5b62461bcd60e51b815260206004820152601660248201527f4d696e696d756d20312063686f697820726571756973000000000000000000006044820152606490fd5b631e4fbdf760e01b5f525f60045260245ffd5b81516001600160401b03811161054a5760209161053f87848094880101610587565b8152019101906100c2565b5f80fd5b6040519190601f01601f191682016001600160401b0381118382101761033257604052565b51906001600160a01b038216820361054a57565b81601f8201121561054a578051906001600160401b038211610332576105b6601f8301601f191660200161054e565b928284526020838301011161054a57815f9260208093018386015e8301015290565b90600182811c92168015610606575b60208310146105f257565b634e487b7160e01b5f52602260045260245ffd5b91607f16916105e7565b81811061061b575050565b5f815560010161061056fe6080806040526004361015610012575f80fd5b5f3560e01c908163060af02214610b5d5750806309eef43e14610b1c5780630ec85ae114610aff578063132002fc14610ae2578063200d2ed214610ab95780632019a60814610a9c578063378a21781461099d5780633eb76b9c1461074e57806342cdb92f146107245780634717f97c1461064f5780634a79d50c1461055b578063715018a6146105045780638da5cb5b146104dd57806398c81bbf146103f8578063affc06701461033a578063bb607b06146102a4578063bc1556d41461027c578063c631b2921461017a5763f2fde38b146100ed575f80fd5b34610176576020366003190112610176576004356001600160a01b038116908190036101765761011b610def565b8015610163575f80546001600160a01b03198116831782556001600160a01b0316907f8be0079c531659141344cd1fd0a4f28419497f9722a3daafe3b4186f6b6457e09080a3005b631e4fbdf760e01b5f525f60045260245ffd5b5f80fd5b34610176575f3660031901126101765760ff6005541660048110156102685760016101a59114610d10565b60018060a01b036002541633146101c160075460065490610d5c565b4210158115610260575b501561020457600260ff1960055416176005557f66b6cb4a09abc3bf1cacc3c67420258856ffdad0deba9078cbd1658957b502185f80a1005b60405162461bcd60e51b815260206004820152602e60248201527f5365756c206c2761646d696e2070657574206665726d6572206176616e74206c60448201526d612066696e2064752064656c616960901b6064820152608490fd5b9050816101cb565b634e487b7160e01b5f52602160045260245ffd5b34610176575f366003190112610176576001546040516001600160a01b039091168152602090f35b34610176575f3660031901126101765760ff6005541660048110156102685760036102cf9114610d7d565b600a546004548110156103265761030e6103229160045f527f8a35acfbc15ff81a39ae7d344fd709f28e8600b4aa8c65c6b64bfe7fe36bd19b01610bb6565b604051918291602083526020830190610c6e565b0390f35b634e487b7160e01b5f52603260045260245ffd5b34610176575f3660031901126101765761035f60018060a01b03600254163314610c92565b60ff600554166004811015610268576103a957600160ff196005541617600555426007557fa737faa632a36c00ccb4220893426e922f9442f1cab67acd8301f88a596d4abc5f80a1005b60405162461bcd60e51b815260206004820152602160248201527f4c65207363727574696e206e276573742070617320656e2062726f75696c6c6f6044820152603760f91b6064820152608490fd5b34610176575f3660031901126101765760045461041481610dd7565b906104226040519283610b80565b80825260208201908160045f527f8a35acfbc15ff81a39ae7d344fd709f28e8600b4aa8c65c6b64bfe7fe36bd19b5f915b8383106104c057848660405191829160208301906020845251809152604083019060408160051b85010192915f905b82821061049157505050500390f35b919360019193955060206104b08192603f198a82030186528851610c6e565b9601920192018594939192610482565b6001602081926104cf85610bb6565b815201920192019190610453565b34610176575f366003190112610176575f546040516001600160a01b039091168152602090f35b34610176575f3660031901126101765761051c610def565b5f80546001600160a01b0319811682556001600160a01b03167f8be0079c531659141344cd1fd0a4f28419497f9722a3daafe3b4186f6b6457e08280a3005b34610176575f366003190112610176576040515f6003548060011c90600181168015610645575b6020831081146106315782855290811561060d57506001146105af575b6103228361030e81850382610b80565b60035f9081527fc2575a0e9e593c00f959f8c92f12db2869c3395a3b0502d05e2516446f71f85b939250905b8082106105f35750909150810160200161030e61059f565b9192600181602092548385880101520191019092916105db565b60ff191660208086019190915291151560051b8401909101915061030e905061059f565b634e487b7160e01b5f52602260045260245ffd5b91607f1691610582565b34610176575f3660031901126101765760ff60055416600481101561026857600361067a9114610d7d565b60045461068681610dd7565b906106946040519283610b80565b8082526106a081610dd7565b602083019190601f19013683375f5b8181106106fa578284604051918291602083019060208452518091526040830191905f5b8181106106e1575050500390f35b82518452859450602093840193909201916001016106d3565b805f52600960205260405f20549084518110156103265760019160208260051b87010152016106af565b34610176576020366003190112610176576004355f526009602052602060405f2054604051908152f35b346101765760203660031901126101765760043560ff60055416600481101561026857600161077d9114610d10565b6001546040516303247d3960e51b815233600482015290602090829060249082906001600160a01b03165afa9081156108a2575f91610962575b501561091e57335f52600860205260ff60405f2054166108e3576004548110156108ad57335f52600860205260405f20600160ff198254161790556024602060018060a01b03600154166040519283809263d5da24b960e01b82523360048301525afa9081156108a2575f91610870575b50815f52600960205261084060405f20918254610d5c565b90556040519081527fa36cc2bebb74db33e9f88110a07ef56e1b31b24b4c4f51b54b1664266e29f45b60203392a2005b90506020813d60201161089a575b8161088b60209383610b80565b81010312610176575182610828565b3d915061087e565b6040513d5f823e3d90fd5b60405162461bcd60e51b815260206004820152600e60248201526d43686f697820696e76616c69646560901b6044820152606490fd5b60405162461bcd60e51b8152602060048201526013602482015272566f7573206176657a2064656a6120766f746560681b6044820152606490fd5b606460405162461bcd60e51b815260206004820152602060248201527f566f7573206e276176657a20706173206c652064726f697420646520766f74656044820152fd5b90506020813d602011610995575b8161097d60209383610b80565b810103126101765751801515810361017657826107b7565b3d9150610970565b34610176575f366003190112610176576109c260018060a01b03600254163314610c92565b60ff60055416600481101561026857600203610a57575f5f5b600454811015610a1b57805f5260096020528160405f205411610a01575b6001016109db565b5f81815260096020526040902054600a82905591506109f9565b600360ff1960055416176005557f7802555c1d66331035d1f30f668a35a4d53a1501b2ecfd5d43ac834e9a79678e6020600a54604051908152a1005b60405162461bcd60e51b815260206004820152601a60248201527f4c65207363727574696e206e2765737420706173206665726d650000000000006044820152606490fd5b34610176575f366003190112610176576020600754604051908152f35b34610176575f3660031901126101765760ff600554166040516004821015610268576020918152f35b34610176575f366003190112610176576020600654604051908152f35b34610176575f366003190112610176576020600a54604051908152f35b34610176576020366003190112610176576004356001600160a01b03811690819003610176575f526008602052602060ff60405f2054166040519015158152f35b34610176575f366003190112610176576002546001600160a01b03168152602090f35b90601f8019910116810190811067ffffffffffffffff821117610ba257604052565b634e487b7160e01b5f52604160045260245ffd5b90604051915f8154908160011c9260018316928315610c64575b602085108414610631578487528693908115610c425750600114610bfe575b50610bfc92500383610b80565b565b90505f9291925260205f20905f915b818310610c26575050906020610bfc928201015f610bef565b6020919350806001915483858901015201910190918492610c0d565b905060209250610bfc94915060ff191682840152151560051b8201015f610bef565b93607f1693610bd0565b805180835260209291819084018484015e5f828201840152601f01601f1916010190565b15610c9957565b60405162461bcd60e51b815260206004820152604360248201527f5365756c206c2761646d696e697374726174657572206465206c276f7267616e60448201527f69736174696f6e2070657574206566666563747565722063657474652061637460648201526234b7b760e91b608482015260a490fd5b15610d1757565b60405162461bcd60e51b815260206004820152601b60248201527f4c65207363727574696e206e2765737420706173206f757665727400000000006044820152606490fd5b91908201809211610d6957565b634e487b7160e01b5f52601160045260245ffd5b15610d8457565b60405162461bcd60e51b815260206004820152602560248201527f4c65207363727574696e206e276573742070617320656e636f7265206465706f60448201526475696c6c6560d81b6064820152608490fd5b67ffffffffffffffff8111610ba25760051b60200190565b5f546001600160a01b03163303610e0257565b63118cdaa760e01b5f523360045260245ffdfea2646970667358221220df0d6cc3f65cd075b3ddfbe8fab78116bbca0bad945055035edf2a3c543b529e64736f6c634300081c00338a35acfbc15ff81a39ae7d344fd709f28e8600b4aa8c65c6b64bfe7fe36bd19ba2646970667358221220e04deb597a260e4df8131d007e060e354fe157782fdd0fcd55460a604a21783b64736f6c634300081c0033",
  "linkReferences": {},
  "deployedLinkReferences": {},
  "immutableReferences": {},
  "inputSourceName": "project/contracts/VerivoVotingFactory.sol",
  "buildInfoId": "solc-0_8_28-fb2626f621ce8afd3dd9ffd4e17ec4d00b60c4d8"
}